:020000040800F2
:10000000000002208DAF0008D5AF0008D5AF000872
:10001000D5AF0008D5AF0008D5AF0008000000003C
:100020000000000000000000000000009D330008F8
:10003000D5AF00080000000055340008B5340008B2
:10004000D5AF0008D5AF0008D5AF0008D5AF000880
:10005000D5AF0008D5AF0008D5AF0008D5AF000870
:10006000D5AF0008D5AF0008D5AF0008D5AF000860
:10007000D5AF0008D5AF0008D5AF0008D5AF000850
:10008000D5AF0008D5AF0008D5AF0008D5AF000840
:10009000D5AF0008D5AF0008D5AF0008D5AF000830
:1000A000D5AF0008D5AF0008D5AF0008D5AF000820
:1000B000D5AF0008D5AF0008D5AF0008D5AF000810
:1000C000D5AF0008D5AF0008D5AF0008D5AF000800
:1000D000D5AF0008D5AF0008D5AF0008D5AF0008F0
:1000E000D5AF0008D5AF0008D5AF0008D5AF0008E0
:1000F000D5AF0008D5AF0008D5AF0008D5AF0008D0
:10010000D5AF0008D5AF0008D5AF0008D5AF0008BF
:10011000D5AF0008D5AF0008D5AF0008D5AF0008AF
:10012000D5AF0008D5AF0008D5AF0008D5AF00089F
:10013000D5AF0008D5AF0008D5AF0008D5AF00088F
:10014000D5AF0008D5AF0008D5AF0008D5AF00087F
:10015000D5AF0008D5AF0008D5AF0008D5AF00086F
:10016000D5AF0008D5AF0008D5AF0008D5AF00085F
:10017000D5AF0008D5AF0008D5AF0008D5AF00084F
:08018000D5AF0008D5AF00085F
:1001C0000348044B834202D0034B03B118477047E6
:1001D000E4090020E4090020000000000548064969
:1001E0000B1AD90F01EBA301491002D0034B03B145
:1001F00018477047E4090020E409002000000000CF
:1002000010B5064C237843B9FFF7DAFF044B13B15E
:100210000448AFF300800123237010BDE4090020DF
:1002200000000000D8B4000808B5044B1BB1044915
:100230000448AFF30080BDE80840CFE700000000AD
:10024000E8090020D8B40008A3F5803A704700BF41
:10025000154B002B08BF114B9D46FFF7F5FF002102
:100260008B460F461148124A121A03F02FFC0C4B12
:10027000002B00D098470B4B002B00D09847002054
:10028000002104000D000B4803F030FB03F060FB7D
:10029000200029000AF066FE03F034FB000008008D
:1002A000000000000000000000000000E409002041
:1002B000404800202539000808B5024C204603F0CC
:1002C00067FCFBE7B8B20008354A364813680021DE
:1002D00043F0010313609160136823F0847323F4E7
:1002E000803313605060136882B023F4802313605E
:1002F000D16000910191136843F48033136003E0EF
:10030000009BB3F5A06F09D0136803F40033019389
:10031000009B01330093019B002BF1D0204B1B6805
:1003200013F4003318BF01230193019B012B05D067
:100330001D4B4FF000629A6002B07047184B1B498A
:100340001A6C1B4842F080521A640A6842F48042D8
:100350000A609A689A609A6842F400429A609A68C1
:1003600042F4A0529A6058601A6842F080721A6093
:100370001A689201FCD50F4A40F205611160996834
:1003800021F003019960996841F00201A2F58062B1
:100390009960936803F00C03082BFAD1C8E700BFFB
:1003A000003802401030002400ED00E000700040F2
:1003B00008544007003C0240164A936803F00C03BF
:1003C000042B0BD0082B0BD0134B124A1349926805
:1003D000C2F303128A5CD3400B617047104BF4E701
:1003E0005368516813F4800F01F03F01536814BF44
:1003F0000B4A094AB2FBF1F1064A5268C2F30142C4
:10040000C3F38813013201FB03F35200B3FBF2F391
:10041000DBE700BF003802400024F40004000020A5
:1004200000127A000A4B0B481A68002142F00102C0
:100430001A6099601A6822F0847222F480321A607D
:1004400058601A6822F480221A60D960704700BF91
:100450000038024010300024024B00229A7098703D
:10046000704700BF0038024082B000230949019361
:1004700000E04AB90A68019B01330193019BB3F57F
:10048000A06F02F40032F4D1024B1868C0F3404070
:1004900002B0704700380240034A136823F0F803A3
:1004A00043EAC0001060704700380240014B1860FA
:1004B000704700BF00004742084B0022012883F824
:1004C000702083F8702006D0042803D1052283F819
:1004D00070207047704783F8700070470038024002
:1004E000014BC3F8800E70470000474210B4019CD6
:1004F00040EA046008435B08044C40EA8210013B78
:1005000040EA034060605DF8044B704700380240E9
:10051000014B1866704700BF00004742034B0907B4
:1005200041EA8011C3F88410704700BF00380240D0
:10053000014B9866704700BF00004742014BD864EA
:10054000704700BF00004742034A936823F0EC6302
:100550000B4303439360704700380240034A93689B
:1005600023F078430B430343936070470038024005
:10057000034A936823F0030318439060704700BF59
:1005800000380240024B986800F00C00704700BF32
:1005900000380240034A936823F0F0031843906048
:1005A000704700BF00380240034A936823F4E053C9
:1005B00018439060704700BF00380240034A9368B8
:1005C00023F4604343EAC000906070470038024063
:1005D0001F4A936803F00C03042B10B41BD0082BA4
:1005E0001CD01C4B03601A4A1B499468C4F30314C3
:1005F0000C5DE34043609468C4F382240C5D23FAED
:1006000004F4846092685DF8044BC2F342328A5C61
:10061000D340C3607047114B0360E4E753685168EF
:1006200013F4800F01F03F01536814BF0B4A094ACD
:10063000B2FBF1F1064A5268C2F30142C3F38813D8
:10064000013201FB03F35200B3FBF2F30360CAE78C
:10065000003802400024F4001800002000127A0044
:1006600000F44073B3F5407F09D108498A6820F04F
:10067000704323F4407322F4F81213438B60034B4E
:100680001A6FC0F30B001043186770470038024020
:10069000014BC3F83C0E704700004742014BC3F8C2
:1006A000400E704700004742014BC3F85C017047A1
:1006B00000004742044A136B11B11843106370479E
:1006C00023EA00001063704700380240044A536B6D
:1006D00011B118435063704723EA0000506370471C
:1006E00000380240044A936B11B11843906370477D
:1006F00023EA00009063704700380240044A136CFC
:1007000011B118431064704723EA00001064704769
:1007100000380240044A536C11B1184350647047CA
:1007200023EA00005064704700380240044A13690D
:1007300011B118431061704723EA0000106170473F
:1007400000380240044A536911B1184350617047A0
:1007500023EA00005061704700380240044A936960
:1007600011B118439061704723EA0000906170470F
:1007700000380240044A136A11B1184310627047EE
:1007800023EA00001062704700380240044A536AAE
:1007900011B118435062704723EA0000506270475D
:1007A00000380240044A136D11B1184310657047B8
:1007B00023EA00001065704700380240044A536D78
:1007C00011B118435065704723EA00005065704727
:1007D00000380240044A936D11B118439065704788
:1007E00023EA00009065704700380240044A136E07
:1007F00011B118431066704723EA00001066704775
:1008000000380240044A536E11B1184350667047D5
:1008100023EA00005066704700380240044A537BC8
:1008200011B118435073704723EA000050737047AA
:10083000003802404309012B0BD0022B094B0CBF9F
:100840001B6F5B6F00F01F0023FA00F000F0010047
:100850007047044B1B6800F01F0023FA00F000F003
:100860000100704700380240024A536F43F0807322
:100870005367704700380240034BDB68184214BFCF
:1008800001200020704700BF00380240014B9873E0
:10089000704700BF0038024008B53C4B984222D058
:1008A0003B4B984229D03B4B984230D03A4B984230
:1008B0000FD03A4B984234D0394B98423BD0394B09
:1008C000984242D0384B984255D0384B984246D047
:1008D00008BD01210820FFF729FFBDE808400021DD
:1008E0000820FFF723BF01210846FFF71FFFBDE8DF
:1008F000084000210120FFF719BF01210220FFF766
:1009000015FFBDE8084000210220FFF70FBF0121BD
:100910000420FFF70BFFBDE8084000210420FFF78B
:1009200005BF01211020FFF701FFBDE808400021AD
:100930001020FFF7FBBE01212020FFF7F7FEBDE8E6
:10094000084000212020FFF7F1BE01214020FFF7E1
:10095000EDFEBDE8084000214020FFF7E7BE012181
:100960004FF48070FFF7E2FEBDE8084000214FF42D
:100970008070FFF7DBBE01218020FFF7D7FEBDE8C6
:10098000084000218020FFF7D1BE00BF00000240D8
:100990000004024000080240000C02400010024027
:1009A0000014024000180240001C024000200240D7
:1009B00000222DE9F04713460D684FF0010E032683
:1009C00004E00133102B02F1020239D00EFA03FCCD
:1009D0003CEA0504F5D1076806FA02F427EA0407A1
:1009E00007600F79D0F800A007FA02F9013F49EA41
:1009F0000A09012FA046C0F800906FEA040411D83C
:100A000087683C4084604C79876894403C438460AC
:100A1000446824EA0C0444608C7947689C40A4B282
:100A20003C434460C46824EA0804C460CC79C768C5
:100A3000944001333C43102BC46002F10202C5D143
:100A4000BDE8F0874FF6FF720023C0E9002370472E
:100A500082B04FF480330193019B0B430193019BC0
:100A6000C361C161019BC361C3690193C369019300
:100A700002B070470369194214BF0120002070477B
:100A8000006980B2704700BF4369194214BF01205A
:100A900000207047406980B2704700BF01837047F3
:100AA000418370470AB1018370474183704700BF9B
:100AB000416170474369594041617047CB0800EB81
:100AC000830001F00701036A89004FF00F0C0CFA54
:100AD00001FC23EA0C030362036A8A401A430262A0
:100AE000704700BF704700BF0120704708B502F093
:100AF00003FF162303604FF0FF3008BD08B502F076
:100B0000FBFE16230360FEE770B5161E07DD0C46DC
:100B10008D19AFF3008004F8010BA542F9D13046DE
:100B200070BD00BF70B5161E07DD0C468D1914F898
:100B3000010BAFF30080A542F9D1304670BD00BF74
:100B40004FF0FF30704700BF4FF400534B60002060
:100B5000704700BF01207047002070470EB44FF06F
:100B6000FF3003B0704700BF08B502F0C5FE0A238E
:100B700003604FF0FF3008BD08B502F0BDFE022350
:100B800003604FF0FF3008BD4FF0FF30704700BFEB
:100B90004FF400534B600020704700BF08B502F0CF
:100BA000ABFE1F2303604FF0FF3008BD08B502F015
:100BB000A3FE0B2303604FF0FF3008BD08B502F021
:100BC0009BFE0C2303604FF0FF3008BD0B4A08B5B5
:100BD0000346106828B10A4903448B4207D81360C2
:100BE00008BD08480649106003448B42F7D902F05B
:100BF00083FE0C2303604FF0FF3008BD000A002085
:100C0000000002204048002000F108034FF0FF31AF
:100C10000022C0E90131C0E903330260704700BF20
:100C200000230361704700BF43689A688A600268C6
:100C300010B49C684B600132616099605DF8044BB0
:100C400008610260704700BF30B40D686B1C10D0A3
:100C500000F108031C465B681A68AA42FAD90268C8
:100C60004B60013299608C606160086130BC026049
:100C7000704704696368F2E7036910B4D0E90112B0
:100C80005C688A608442516008BF5A601A685DF8E7
:100C9000044B0021013A01611A601868704700BFD7
:100CA00070B50446006CA66B20B925684DB30136BB
:100CB000A66370BD154602467DB9606802F06CFE01
:100CC0006368226C1344A2686360934224BF236864
:100CD000636001362846A66370BDE06802F05CFEE2
:100CE000226CE36851429B1A2268E360934202D26D
:100CF000A3680B44E360022D08D001360020A663F0
:100D000070BDA06801F040FDA560D0E7012E38BF9E
:100D100001260020CCE700BF70B5054602F064FB59
:100D200095F845305CB2002C14DD05F1240603E093
:100D3000631EDAB25CB26AB16B6A304653B101F03D
:100D4000D7FB0028F4D001F0B5FC631EDAB25CB228
:100D5000002AF1D1FF2385F8453002F067FB02F04D
:100D600043FB95F844305CB2002C14DD05F110060D
:100D700003E0631EDAB25CB26AB12B69304653B14C
:100D800001F0B6FB0028F4D001F094FC631EDAB247
:100D90005CB2002AF1D1FF2385F84430BDE87040F1
:100DA00002F044BB38B5E0B104460D4602F01CFB2E
:100DB000D4E90F232168616003FB02F2D31A0A44CD
:100DC000A2600022A2630B44FF2284F84420E36067
:100DD00084F8452075B92369C3B902F027FB0120C7
:100DE00038BD4FF0500383F31188BFF36F8FBFF30B
:100DF0004F8FFEE704F11000FFF706FF04F1240017
:100E0000FFF702FF02F012FB012038BD04F11000D1
:100E100001F06EFB0028E0D04FF0E0234FF080524D
:100E2000C3F8042DBFF34F8FBFF36F8FD5E700BF1B
:100E300040B94FF0500383F31188BFF36F8FBFF3B6
:100E40004F8FFEE770B5044601FB00F048300D46B9
:100E500002F040FC064648B155B100F14803C6E92E
:100E60000F45336001213046FFF79CFF304670BDCF
:100E70000346F4E72DE9F04385B00192002875D0D0
:100E800088461E460446002964D0022E0BD1E36B2F
:100E9000012B08D04FF0500383F31188BFF36F8FFD
:100EA000BFF34F8FFEE701F013FC0546002866D024
:100EB00000254FF0000907E002F0B8FA2046FFF7DE
:100EC0002BFF01F0BFF9012502F08EFAA26BE36B54
:100ED0009A4264D3022E62D0019F002F77D0002D5A
:100EE00059D002F0A3FA01F0A3F902F07DFA94F8C8
:100EF0004430FF2B08BF84F8449094F84530FF2B12
:100F000008BF84F8459002F091FA01A902A801F007
:100F10008DFB00285FD102F067FAA26BE36B9A4267
:100F2000CAD102F083FA019904F1100001F09CFA91
:100F30002046FFF7F1FE01F085F90028C3D14FF0FC
:100F4000E0234FF08052C3F8042DBFF34F8FBFF35F
:100F50006F8FB8E7036C002B97D04FF0500383F3EB
:100F60001188BFF36F8FBFF34F8FFEE74FF0500331
:100F700083F31188BFF36F8FBFF34F8FFEE7019BA1
:100F8000002B96D04FF0500383F31188BFF36F8F7F
:100F9000BFF34F8FFEE702A801F03EFBA1E7324608
:100FA00041462046FFF77CFE636ADBB948B14FF04B
:100FB000E0234FF08052C3F8042DBFF34F8FBFF3EF
:100FC0006F8F02F033FA012005B0BDE8F08302F024
:100FD0002DFA3846F8E72046FFF79EFE01F032F979
:100FE0000020F1E704F1240001F082FA0028E8D0A3
:100FF000DDE700BF38B5482002F06CFB044678B14D
:10100000002501212060C0E90F15FFF7CBFEA56088
:101010002560E5602B462A4629462046FFF72AFF31
:10102000204638BD00284BD02DE9F0410E4617462A
:101030001D46044621B3022D0BD1E36B012B08D0D2
:101040004FF0500383F31188BFF36F8FBFF34F8FBF
:10105000FEE702F0DFFAEFF311884FF0500383F35D
:101060001188BFF36F8FBFF34F8FA26BE36B9A4270
:1010700012D3022D10D0002088F31188BDE8F08132
:10108000036C002BD7D04FF0500383F31188BFF3CC
:101090006F8FBFF34F8FFEE72A4694F84550A36B3E
:1010A00031466DB22046FFF7FBFD6B1C11D06B1C67
:1010B0005BB284F84530012088F31188BDE8F081E7
:1010C0004FF0500383F31188BFF36F8FBFF34F8F3F
:1010D000FEE7636A002BEED004F1240001F008FA69
:1010E0000028E8D0002FE6D001203860C4E700BF18
:1010F00070B3036C70B5064643B14FF0500383F3F1
:101100001188BFF36F8FBFF34F8FFEE703680C4664
:101110003BB302F07FFAEFF311854FF0500383F3F6
:101120001188BFF36F8FBFF34F8FB36BF26B9A428F
:1011300023D996F845200133FF2AB36353B220D058
:1011400001335BB286F84530012085F3118870BD0C
:101150004FF0500383F31188BFF36F8FBFF34F8FAE
:10116000FEE78368002BD4D04FF0500383F311883F
:10117000BFF36F8FBFF34F8FFEE7002085F3118819
:1011800070BD736A002BDFD006F1240001F0B0F9C6
:101190000028D9D0002CD7D001202060EEE700BF76
:1011A0002DE9F04385B00192002800F0A0800D46A3
:1011B0000446002947D001F08BFA00284FD002F0F6
:1011C00013F9A66B002E67D1019B002B35D002A826
:1011D00001F022FA374604F124084FF0E02902F02A
:1011E00025F901F025F802F0FFF894F84430FF2BC0
:1011F00008BF84F8447094F84530FF2B08BF84F88A
:10120000457002F013F901A902A801F00FFA0028B5
:1012100031D102F0E9F8A36B002B52D002F006F9AD
:101220002046FFF779FD01F00DF802F0DDF8A66B1E
:10123000002E31D1019B002BD1D102F0F7F8002014
:1012400005B0BDE8F083036C002BB4D04FF0500321
:1012500083F31188BFF36F8FBFF34F8FFEE7019BBE
:10126000002BACD04FF0500383F31188BFF36F8F86
:10127000BFF34F8FFEE72046FFF74EFD00F0E2FF81
:1012800002F0B2F8A36B002BD7D002F0CFF802F037
:10129000ABF8A66B002ECDD0226C52B1E168A368EA
:1012A00011449942E16024BF2168E160284602F0C0
:1012B00073FB013EA663236913BB02F0B7F801205C
:1012C000BEE702F0B3F80199404601F0CDF82046A0
:1012D000FFF722FD00F0B6FF0028D8D14FF0805371
:1012E000C9F8043DBFF34F8FBFF36F8FCFE74FF0C7
:1012F000500383F31188BFF36F8FBFF34F8FFEE767
:1013000004F1100001F0F4F80028D6D04FF0E023EB
:101310004FF08052C3F8042DBFF34F8FBFF36F8F90
:10132000CBE700BFF0B585B00191002855D0066C21
:10133000044646B14FF0500383F31188BFF36F8F1B
:10134000BFF34F8FFEE701F0C3F9054600284DD0EB
:10135000354602F049F8A36B00278BBB019B002B9D
:1013600000F09B80002D59D002F060F800F060FF83
:1013700002F03AF894F84430FF2B08BF84F8447028
:1013800094F84530FF2B08BF84F8457002F04EF802
:1013900001A902A801F04AF9002833D102F024F88B
:1013A000A36B002B44D002F041F82046FFF7B4FCB9
:1013B00000F048FF02F018F8A36B0125002BCDD0F8
:1013C0002268013BA363002A00F085802369002B7B
:1013D00070D102F02BF8012627E04FF0500383F381
:1013E0001188BFF36F8FBFF34F8FFEE7019B002B78
:1013F00039D04FF0500383F31188BFF36F8FBFF3E1
:101400004F8FFEE72046FFF787FC00F01BFF01F03F
:10141000EBFFA36B33B102F009F8CBE702A801F0B0
:10142000FBF8A1E702F002F8FEB9304605B0F0BDC6
:1014300001F0FCFF23683BB3019904F1240001F0A3
:1014400013F82046FFF768FC00F0FCFE0028B1D13D
:101450004FF0E0234FF08052C3F8042DBFF34F8FBD
:10146000BFF36F8FA6E7064673E701F0BDFF616A21
:1014700019B1236B1968C1F10701A06801F0D8F90F
:10148000002601F0D3FFD0E701F0AEFFA06801F025
:101490002FF9064601F0CAFFCEE746B14FF05003E0
:1014A00083F31188BFF36F8FBFF34F8FFEE701F017
:1014B000BDFFBAE704F1100001F01AF8002888D047
:1014C0004FF0E0234FF08052C3F8042DBFF34F8F4D
:1014D000BFF36F8F7DE701F013FAA06076E700BFDE
:1014E0002DE9F04184B00192002800F087800D467C
:1014F0000446002947D001F0EBF800284FD001F056
:1015000073FFA66B002E40F08280019B002B34D02D
:1015100002A801F081F804F124074FF0E02801F05F
:1015200085FF00F085FE01F05FFF94F84430FF2B4B
:1015300008BF84F8446094F84530FF2B08BF84F856
:10154000456001F073FF01A902A801F06FF80028BF
:1015500031D101F049FFA36B002B39D001F066FFB8
:101560002046FFF7D9FB00F06DFE01F03DFFA36BB5
:10157000002B4CD1019B002BD1D101F057FF002053
:1015800004B0BDE8F081036C002BB4D04FF05003E1
:1015900083F31188BFF36F8FBFF34F8FFEE7019B7B
:1015A000002BACD04FF0500383F31188BFF36F8F43
:1015B000BFF34F8FFEE72046FFF7AEFB00F042FE81
:1015C00001F012FFA36B002BD7D001F02FFFCCE767
:1015D00001F02CFF0199384600F046FF2046FFF746
:1015E0009BFB00F02FFE0028BFD14FF08053C8F8BE
:1015F000043DBFF34F8FBFF36F8FB6E74FF050033B
:1016000083F31188BFF36F8FBFF34F8FFEE7226C18
:10161000E6684AB1A368B1189942E16024BF216825
:10162000E160284602F0B8F9636AE6601BB901F090
:10163000FDFE0120A4E704F1240000F059FF00287A
:10164000F5D04FF0E0234FF08052C3F8042DBFF3E4
:101650004F8FBFF36F8FEAE72DE9F84310B30E46C3
:101660001746044691B101F0D5FFEFF311894FF011
:10167000500383F31188BFF36F8FBFF34F8FA56BB8
:10168000CDB9284689F31188BDE8F883036C002B97
:10169000E9D04FF0500383F31188BFF36F8FBFF38E
:1016A0004F8FFEE74FF0500383F31188BFF36F8F26
:1016B000BFF34F8FFEE794F84480226C4FFA88F80E
:1016C00052B1E168A36811449942E16024BF2168E6
:1016D000E160304602F060F9013DB8F1FF3FA563DB
:1016E00009D008F101035BB284F84430012089F38A
:1016F0001188BDE8F8832369002BF7D004F11000AE
:1017000000F0F6FE0028F1D0002FEFD00120386065
:10171000B8E700BFF8B5C0B1036C0D46044649B147
:10172000E3B94FF0500383F31188BFF36F8FBFF31A
:101730004F8FFEE7002BF4D04FF0500383F3118856
:10174000BFF36F8FBFF34F8FFEE74FF0500383F36C
:101750001188BFF36F8FBFF34F8FFEE701F05AFF81
:10176000EFF311864FF0500383F31188BFF36F8FAF
:10177000BFF34F8FA06B10B986F31188F8BD226CB0
:10178000E7684AB1A368B9189942E16024BF2168AB
:10179000E160284602F000F9E7600120ECE700BFB5
:1017A00058B110B5044682B001F01EFEA06B019046
:1017B00001F03CFE019802B010BD4FF0500383F3DE
:1017C0001188BFF36F8FBFF34F8FFEE768B110B57D
:1017D000044682B001F008FEA36BE06BC01A0190D2
:1017E00001F024FE019802B010BD4FF0500383F3C6
:1017F0001188BFF36F8FBFF34F8FFEE708B1806B87
:1018000070474FF0500383F31188BFF36F8FBFF31E
:101810004F8FFEE770B110B40F4C002304EBC302EE
:10182000516888420FD00133082BF7D15DF8044B83
:1018300001F0D2BF4FF0500383F31188BFF36F8FD5
:10184000BFF34F8FFEE7002144F8331051605DF87D
:10185000044B01F0C1BF00BF040A002020B1806B1F
:10186000B0FA80F0400970474FF0500383F31188BD
:10187000BFF36F8FBFF34F8FFEE700BF30B1836BB5
:10188000C06BC01AB0FA80F0400970474FF05003A7
:1018900083F31188BFF36F8FBFF34F8FFEE700BF55
:1018A00010B4094C002354F833202AB10133082B1B
:1018B000F9D15DF8044B704704EBC30244F83310D0
:1018C00050605DF8044B7047040A0020074900236C
:1018D00001EBC3025268824204D00133082BF7D1D6
:1018E0000020704751F83300704700BF040A002001
:1018F00010B40A4C002304EBC3025168814205D0A6
:101900000133082BF7D15DF8044B7047002144F8F0
:10191000331051605DF8044B704700BF040A00208B
:10192000F8B5184C06462568606804300F46FFF786
:10193000A3F938B96368D96AA36801228A4023EA07
:101940000203A360731C14D06368AD195D6006D3F5
:10195000206A6168BDE8F8400431FFF775B9606A34
:1019600061680431FFF770F9A36AAB4288BFA562D2
:10197000F8BD002FE8D061680348BDE8F8400431A5
:10198000FFF752B9440A0020500A002080B5164CD7
:101990004FF0E0274FF0805618E001F025FDE36B93
:1019A000DD68281DFFF768F9636C013B6364E36A37
:1019B000013BE36201F03AFD05F1500002F020F92D
:1019C000286B01F009FF284601F006FFE36A002BAF
:1019D000E3D1A36C012BF9D9C7F8046DBFF34F8F86
:1019E000BFF36F8FF2E700BF440A00202DE9F047F4
:1019F000394C276801372760DFB9636A1B6843B138
:101A00004FF0500383F31188BFF36F8FBFF34F8FF5
:101A1000FEE7636A226A62622362D4F8D43001333B
:101A2000C4F8D430636A1B68002B4FD14FF0FF33EA
:101A3000A362A36A9F4232D3636A1E68002E41D01C
:101A4000DFF8989000264FF001081DE0FFF714F929
:101A5000AB6A05F118000BB1FFF70EF9E86AA2684E
:101A600008FA00F300EB80001343514609EB8000B5
:101A7000A360FFF7D9F86268636AE96AD26A1B68F3
:101A8000914228BF0126EBB1636ADB68DD686B68B1
:101A900005F1040A9F425046D8D2A36200E0002616
:101AA0006368DB6A03EB830304EB83039A6CD4F86B
:101AB000D830022A28BF0126002B0CBF3046012057
:101AC000BDE8F0874FF0FF33A362E9E7636ADB68A4
:101AD000DB685B68A362ACE7440A00208C0A002044
:101AE0002DE9F0413B4C82B001F07EFCD4F8DC30B3
:101AF000013BC4F8DC30D4F8DC30002B4FD1636CF0
:101B0000002B4CD0D4F8E03063B304F14807012631
:101B1000D4F8EC30DD6805F1040805F11800FFF792
:101B2000ABF84046FFF7A8F8E86AA26806FA00F3A7
:101B300000EB80001343414607EB8000A360FFF7F2
:101B400073F86368EA6ADB6A9A4228BFC4F8D8600F
:101B5000D4F8E030002BDBD1636A1B689BBB4FF0ED
:101B6000FF33A362D4F8F450B5B1012606E0FFF7C5
:101B70003DFF08B1C4F8D860013D0BD0D4F8DC308B
:101B8000002BF4D0D4F8F430013D03F10103C4F884
:101B9000F430F3D1C4F8F450D4F8D8303BB9002075
:101BA000019001F043FC019802B0BDE8F0814FF0D4
:101BB000E0234FF08052C3F8042DBFF34F8FBFF3E3
:101BC0006F8F0120ECE7636ADB68DB685B68A36208
:101BD000C8E700BF440A00202DE9F84F4FEA820809
:101BE000814640460D469A4601F074FD002800F0FB
:101BF0009B8006464FF4906001F06CFD044600287F
:101C000000F09F800663002D00F0A48005F1FF3CEA
:101C100000F133030F351CF8017F03F8017F0FB18A
:101C2000AC45F8D1002384F843300A9D062D28BF27
:101C300006254FF0000B271DE56265643846C4F8A1
:101C400048B0FEF7EDFFC5F1070504F11800FEF7F7
:101C5000E7FFA561C4F878B459464FF48562246162
:101C6000646284F87CB404F1500001F02FFF4F4D02
:101C70004F4BC4E940534F4BC4F8083104F54F7340
:101C8000636504F56973A8F10400A36504F20C43CD
:101C90004946E36530440B234FF001084FF000093B
:101CA000A4F80C31C4E93E89524620F0070001F047
:101CB00061FB0B9B206003B11C603F4D01F094FB66
:101CC0006B6C01336B646B68002B46D0D5F8203108
:101CD00073B3E06A05F14808D5F82431AA680133E6
:101CE0000126C5F8243106FA00F300EB8000134307
:101CF000394608EB8000AB60FEF796FF01F096FBDB
:101D0000D5F820311BB36A68E36AD26A9A421ED2C0
:101D10004FF0E0234FF08052C3F8042DBFF34F8FF4
:101D2000BFF36F8F304601E04FF0FF30BDE8F88F12
:101D30006B68E06ADB6A834298BF6C6005F1480813
:101D4000CAE7304601F048FD4FF0FF30EEE730467D
:101D5000BDE8F88F80F8345067E76C606B6C012B3E
:101D6000B7D105F14808464605F1D4093046143686
:101D7000FEF74AFFB145F9D1104E304606F114097D
:101D8000FEF742FF4846FEF73FFFA6F11800FEF7B8
:101D90003BFFA6F1C800FEF737FFA6F1EC00FEF707
:101DA00033FF6E62E06AC5F8209095E70E33CDAB45
:101DB00034126DE6ECDE0500440A00203C0B0020E6
:101DC00070B50446344D01F00FFB002C4BD0261D9E
:101DD0003046FEF751FF30B9E26A02EB820305EBB1
:101DE00083039B6C7BB3A36A1BB104F11800FEF75D
:101DF00043FFD5F824316A680133A242C5F8243183
:101E000029D06B6C04F15000013B6B6401F0F8FECB
:101E1000206B01F0E1FC204601F0DEFC6B6A1B68E0
:101E20006BB16B6ADB68DB685B68AB6201F0FEFA82
:101E3000D5F8203113B16B68A34216D070BD4FF0B6
:101E4000FF33AB62F2E7AB68012101FA02F223EA49
:101E50000202AA60C7E711483146FEF7E5FEEB6AC9
:101E60000133EB62E2E76C68B1E7D5F8DC3043B1EF
:101E70004FF0500383F31188BFF36F8FBFF34F8F81
:101E8000FEE74FF0E0234FF08052C3F8042DBFF37C
:101E90004F8FBFF36F8F70BD440A0020740A00207B
:101EA00010B550B94FF0E0234FF08052C3F8042D25
:101EB000BFF34F8FBFF36F8F10BD124CD4F8DC10FF
:101EC00041B14FF0500383F31188BFF36F8FBFF31D
:101ED0004F8FFEE7D4F8DC300133C4F8DC30FFF775
:101EE0001FFDD4F8DC3043B94FF0500383F3118861
:101EF000BFF36F8FBFF34F8FFEE7FFF7F1FD0028B1
:101F0000D0D010BD440A002010B5044682B001F0C4
:101F10006BFA34B1E06A019001F088FA019802B0DE
:101F200010BD014B5C68F5E7440A002010B504467B
:101F300001F070FBEFF311834FF0500282F3118830
:101F4000BFF36F8FBFF34F8F1CB1E06A83F311882B
:101F500010BD034A5468E06A83F3118810BD00BFC6
:101F6000440A0020062908D94FF0500383F3118852
:101F7000BFF36F8FBFF34F8FFEE72DE9F0410446AB
:101F800082B00D4601F030FA002C3AD0636C9D42CD
:101F900032D0DFF8BC800BD9D8F80410A14252D05F
:101FA000D8F80410CF6AAF428CBF0027012705E0A4
:101FB000D8F804703F1BB7FA87F77F09E66A6564B3
:101FC000B342A36908BFE562002BA4BFC5F10705B2
:101FD000A5611E4D616906EB860305EB83039942FB
:101FE00012D04FB14FF0E0234FF08052C3F8042DD0
:101FF000BFF34F8FBFF36F8F02B0BDE8F04101F028
:1020000015BA134B5C68C1E7211D08460191FEF724
:1020100033FE019940B9D8F80830012000FA06F6DD
:1020200023EA0603C8F80830E06AD8F8084001231C
:10203000834000EB8000234305EB8000C8F80830A4
:10204000FEF7F2FDCDE70027B8E700BF8C0A0020BD
:10205000440A0020A0B130B5234D6B68834283B0A1
:1020600004460BD001F0C0F9626905F10C039A42F5
:102070000FD003B0BDE8304001F0D8B903B030BD97
:102080004FF0500383F31188BFF36F8FBFF34F8F6F
:10209000FEE7A36A05F1E0029342EAD0002BE8D103
:1020A000211D08460191FEF7E7FDE06AAA68019943
:1020B000012383401343AB6000EB800005F148032C
:1020C00003EB8000FEF7B0FD6B68E26ADB6A9A42C0
:1020D000CFD34FF0E0234FF08052C3F8042DBFF36D
:1020E0004F8FBFF36F8FC4E7440A0020D0B1F0B523
:1020F00083B0044601F08EFAEFF311874FF05003DE
:1021000083F31188BFF36F8FBFF34F8F214D626947
:1021100005F10C039A420ED0002687F31188304651
:1021200003B0F0BD4FF0500383F31188BFF36F8FFE
:10213000BFF34F8FFEE7A66A05F1E0008642EBD0C1
:10214000002EE9D1D5F8DC30F3B96B68E66ADB6ABA
:10215000211D9E42084634BF002601260191FEF74C
:102160008BFDE06AAA680199012383401343AB60A9
:1021700000EB8000483505EB8000FEF755FD87F346
:102180001188304603B0F0BD04F11801FEF74CFD94
:10219000C3E700BF440A002030B5194D19491A4859
:1021A00083B0002405F59473CDE9004380222346D3
:1021B000FFF712FD01280CD0013001D003B030BD73
:1021C0004FF0500383F31188BFF36F8FBFF34F8F2E
:1021D000FEE74FF0500383F31188BFF36F8FBFF317
:1021E0004F8F6B68094A503313604FF0FF33AB6277
:1021F000C5F820012C6003B0BDE8304001F084B97F
:10220000440A0020D0B200088D19000838000020D0
:102210004FF0500383F31188BFF36F8FBFF34F8FDD
:10222000024B0022C3F8202101F0CCB8440A002060
:10223000034AD2F8DC300133C2F8DC30704700BF0B
:10224000440A0020064BD3F8DC3043B94FF050036A
:1022500083F31188BFF36F8FBFF34F8FFEE73FE427
:10226000440A0020014B1868704700BF440A002050
:1022700008B501F0CFF9014B186808BD440A0020E9
:10228000014B586C704700BF440A002008B134303D
:102290007047064B58680028F9D14FF0500383F37C
:1022A0001188BFF36F8FBFF34F8FFEE7440A002002
:1022B000124BD3F8DC2042B14FF0500383F3118866
:1022C000BFF36F8FBFF34F8FFEE7D3F8DC200132EF
:1022D000C3F8DC20D3F8F4201044C3F8F400D3F89A
:1022E000DC3043B94FF0500383F31188BFF36F8F95
:1022F000BFF34F8FFEE7FFF7F3BB00BF440A002098
:10230000064BD3F8DC200AB9FFF770BBD3F8F420F2
:1023100001320020C3F8F420704700BF440A0020B7
:10232000174AD2F8DC301BB10123C2F8D83070470D
:10233000C2F8D8309368B3FA83F3DBB2C3F11F035A
:1023400003EB830302EB83019B00886C40B94FF0E1
:10235000500383F31188BFF36F8FBFF34F8FFEE7F6
:10236000C86C13444068C8645033984204BF406846
:10237000C864C36853605368024A5033136070479F
:10238000440A00203800002070B50446344D01F0A6
:102390002BF8002C49D0261D3046FEF76DFC30B9D5
:1023A000E26A02EB820305EB83039B6C43B3A36AEF
:1023B0001BB104F11800FEF75FFC2A483146FEF716
:1023C00033FC94F87C34012B04BF002384F87C3464
:1023D00001F02CF8D5F82031D3B96B68A34200D0B6
:1023E00070BDD5F8203133B3D5F8DC304BB34FF0A6
:1023F000500383F31188BFF36F8FBFF34F8FFEE756
:10240000AB68012101FA02F223EA0202AA60CEE7D8
:1024100000F0EAFF6B6A1B684BB16B6ADB68DB6834
:102420005B68AB6201F002F8D7E76C68B3E74FF086
:10243000FF33AB62F6E7E9686A6C91420CD16B60DE
:1024400070BD4FF0E0234FF08052C3F8042DBFF36E
:102450004F8FBFF36F8F70BDBDE87040FFF760BF57
:10246000440A0020500A002060B110B50A4B0C4607
:1024700059681831FEF7E8FB20460121BDE81040FD
:10248000FFF74EBA4FF0500383F31188BFF36F8FFD
:10249000BFF34F8FFEE700BF440A002038B5E0B11C
:1024A000124B1446D3F8DC2042B94FF0500383F3AB
:1024B0001188BFF36F8FBFF34F8FFEE75A685D68D7
:1024C00041F00043936105F11801FEF7ADFB204692
:1024D0000121BDE83840FFF723BA4FF0500383F3E2
:1024E0001188BFF36F8FBFF34F8FFEE7440A0020C0
:1024F00070B5C368DC6882B06CB31B4D04F118067C
:102500003046FEF7B9FBD5F8DC307BB1314605F13A
:10251000E000FEF789FB6B68E26ADB6A9A428ABFD9
:1025200001200020C5F8D80002B070BD211D08466A
:102530000191FEF7A1FBE06AAA680199012383409B
:102540001343AB6000EB800005F1480303EB800010
:10255000FEF76AFBDFE74FF0500383F31188BFF308
:102560006F8FBFF34F8FFEE7440A002070B51C4CFD
:10257000D4F8DC2042B94FF0500383F31188BFF345
:102580006F8FBFF34F8FFEE7C56841F000410160D8
:10259000EDB12E1DFEF770FB3046FEF76DFBE86ACD
:1025A000A2683146012606FA00F31343A36000EB4C
:1025B000800004F1480303EB8000FEF735FB6368FD
:1025C000EA6ADB6A9A4288BFC4F8D86070BD4FF0EF
:1025D000500383F31188BFF36F8FBFF34F8FFEE774
:1025E000440A002068B110B5044600F0FDFE094B16
:1025F000D3F8D4201B68C4E90023BDE8104000F0E4
:1026000015BF4FF0500383F31188BFF36F8FBFF3F3
:102610004F8FFEE7440A0020034BD3F8D4201B68F9
:10262000C0E90023704700BF440A002018B3F0B58A
:102630000D4683B0B1B1044600F0D6FE2B681C4AAB
:10264000581C11682ED0D4E90070D2F8D460B7427B
:102650001AD0884218D80120019000F0E7FE0198B6
:1026600003B0F0BD4FF0500383F31188BFF36F8FB9
:10267000BFF34F8FFEE74FF0500383F31188BFF392
:102680006F8FBFF34F8FFEE7A1EB000C63450BD9B3
:102690005B1AD2F8D410126803442B600020C4E9FE
:1026A0000012D9E70020D7E700232B600120D3E7F1
:1026B000440A0020024B0122C3F8D820704700BF13
:1026C000440A0020014B5868704700BF440A0020AC
:1026D000064BD3F8202132B1D3F8DC30002B0CBFED
:1026E0000220002070470120704700BF440A0020EC
:1026F00070B5044682B0C8B1214DC36A6A68D26A17
:10270000934215D28269002A04DB6A68D26AC2F158
:10271000070282611B4E626903EB830306EB8303AE
:102720009A420ED06B68DB6AE362012002B070BD92
:102730006B68406CDB6A98422CBF0020012002B01D
:1027400070BD211D08460191FEF796FA019930B936
:10275000E06AAB680122824023EA0203AB606B6847
:10276000AA68D86AE062012404FA00F300EB800052
:10277000134306EB8000AB60FEF756FA2046D5E720
:10278000440A00208C0A002020B370B5264D6B68E7
:10279000834282B0044608D04FF0500383F311887F
:1027A000BFF36F8FBFF34F8FFEE79B6C4BB1C16AD6
:1027B000426C013B9142836400D06BB1002002B0B7
:1027C00070BD4FF0500383F31188BFF36F8FBFF3D9
:1027D0004F8FFEE700207047011D08460191FEF76C
:1027E0004BFA019960B9E06A00EB800305EB8303C3
:1027F0009B6C2BB9AB680122824023EA0203AB60D9
:10280000636CAE68E362C3F10702A261074801246A
:1028100004FA03F203EB8303324300EB8300AA6064
:10282000FEF702FA2046CAE7440A00208C0A00207C
:10283000002842D070B5836C82B0044653B1406C1E
:10284000E26A814238BF01468A4201D0012B0AD098
:1028500002B070BD4FF0500383F31188BFF36F8F48
:10286000BFF34F8FFEE71E4D6B68A34226D0A369CE
:10287000E162002BA8BFC1F107011A4EA8BFA161F8
:1028800002EB8202616906EB82039942E0D1211DCD
:1028900008460191FEF7F0F90199C0B1E06A012301
:1028A0008340AA6800EB8000134306EB8000AB6016
:1028B00002B0BDE87040FEF7B7B970474FF0500363
:1028C00083F31188BFF36F8FBFF34F8FFEE7E06A8A
:1028D000AA680123834022EA0302AA60E1E700BF5D
:1028E000440A00208C0A0020044A51685368526848
:1028F000DB6A8869C3F1070393617047440A0020CB
:10290000044B5A681AB159688A6C01328A64586853
:10291000704700BF440A002070B51A4C06460D46A9
:1029200000F062FD6368D3F8783423B9636801214D
:1029300083F87C14C5B900F079FD00F055FD63689B
:10294000D3F8785425B1636856B10022C3F87824CF
:102950006368002283F87C2400F068FD284670BD7F
:102960006A1EC3F87824F3E72846FEF7D9FF4FF034
:10297000E0234FF08052C3F8042DBFF34F8FBFF315
:102980006F8FD8E7440A00202DE9F043254C83B02F
:102990000E4680461546994600F026FD616891F87E
:1029A0007C1402290DD06368D3F8787427EA0807ED
:1029B000C3F878746368012183F87C14B9F1000FBF
:1029C00019D100F033FD00F00FFD1DB16368D3F89D
:1029D00078342B60636893F87C34022B19D0002084
:1029E00063680190002283F87C2400F01FFD0198A9
:1029F00003B0BDE8F0834846FEF792FF4FF0E023B6
:102A00004FF08052C3F8042DBFF34F8FBFF36F8F89
:102A1000D7E76368D3F8781421EA06060120C3F8E3
:102A20007864DDE7440A002020B3F0B51E4683B089
:102A30000F461546044600F0D7FC16B1D4F878349A
:102A4000336094F87C640223F6B284F87C34042D5D
:102A500057D8DFE805F007181E050300022E3ED008
:102A6000C4F87874012E1AD0012600F0DFFC30463D
:102A700003B0F0BD4FF0500383F31188BFF36F8FA5
:102A8000BFF34F8FFEE7D4F878143943C4F87814B5
:102A9000E8E7D4F878340133C4F87834E2E7211D4C
:102AA0001E4D01910846FEF7E7F8E06AAA68019911
:102AB00006FA00F31343AB6000EB800005F1480316
:102AC00003EB8000FEF7B0F8A36A53B14FF0500358
:102AD00083F31188BFF36F8FBFF34F8FFEE700269C
:102AE000C3E76B68E26ADB6A9A42BDD94FF0E02324
:102AF0004FF08052C3F8042DBFF34F8FBFF36F8F99
:102B0000B3E7D4F878340133ACD04FF0500383F3FB
:102B10001188BFF36F8FBFF34F8FFEE7440A002089
:102B200078B32DE9F04182B00F4615461E460446A3
:102B300000F070FDEFF311884FF0500383F311881C
:102B4000BFF36F8FBFF34F8F16B1D4F87834336073
:102B500094F87C640223F6B284F87C34042D5FD8A8
:102B6000DFE805F007181E050300022E29D0C4F87F
:102B70007874012E1AD0012088F3118802B0BDE8C4
:102B8000F0814FF0500383F31188BFF36F8FBFF3D1
:102B90004F8FFEE7D4F878143943C4F87814E8E787
:102BA000D4F878340133C4F87834E2E7A36A53B137
:102BB0004FF0500383F31188BFF36F8FBFF34F8F34
:102BC000FEE70020D8E71D4DD5F8DC300BBB211DFA
:102BD00008460191FEF750F8E06AAA68019906FAE2
:102BE00000F3134300EB8000AB6005F1480303EBF7
:102BF0008000FEF719F86B68E26ADB6A9A42BAD97C
:102C0000089B13B1089A012313600120C5F8D8006E
:102C1000B2E704F1180105F1E000FEF705F8EAE774
:102C2000D4F878340133A4D04FF0500383F31188E3
:102C3000BFF36F8FBFF34F8FFEE700BF440A002042
:102C400018B32DE9F04182B00D46044600F0E2FCD5
:102C5000EFF311864FF0500383F31188BFF36F8FAA
:102C6000BFF34F8F022394F87C2484F87C34D4F88B
:102C70007834012A03F10103D7B2C4F878340DD0B7
:102C800086F3118802B0BDE8F0814FF0500383F362
:102C90001188BFF36F8FBFF34F8FFEE7A36A43B175
:102CA0004FF0500383F31188BFF36F8FBFF34F8F43
:102CB000FEE7DFF85C80D8F8DC3093B104F118014E
:102CC00008F1E000FDF7B0FFD8F80430E26ADB6AF3
:102CD0009A42D5D90DB101232B600123C8F8D83011
:102CE000CEE7211D08460191FDF7C6FFE06AD8F83E
:102CF0000820019907FA00F31343C8F8083000EBE5
:102D0000800008F1480303EB8000FDF78DFFDBE74F
:102D1000440A002010B582B088B1044600F064FB7C
:102D200094F87C34022B05BF00230120002084F896
:102D30007C34019000F07AFB019802B010BD014B89
:102D40005C68EBE7440A002070B50D4682B090B194
:102D50000A4E044600F048FB7368D3F87804D4F8B0
:102D60007834019023EA0503C4F8783400F05EFB60
:102D7000019802B070BD014E7468EBE7440A002070
:102D800010B5182000F0A6FC044620B1002340F83E
:102D9000043BFDF739FF204610BD00BF2DE9F84385
:102DA000B0B111F07F480C4609D1D1B94FF05003B2
:102DB00083F31188BFF36F8FBFF34F8FFEE74FF0A0
:102DC000500383F31188BFF36F8FBFF34F8FFEE77C
:102DD0004FF0500383F31188BFF36F8FBFF34F8F12
:102DE000FEE717461E460546FFF772FC08B9089B2A
:102DF000C3BBFFF71DFAD5F800904EB334EA0903C0
:102E000029D0089BBBB3002F18BF4FF080780EB1BC
:102E100048F08068089A48EA0401281DFFF73EFB45
:102E2000FFF710FA48B94FF0E0234FF08052C3F893
:102E3000042DBFF34F8FBFF36F8FFFF755FD10F0D9
:102E4000007F81461AD029F07F494846BDE8F883C3
:102E500014EA090FD5D077B129EA04042C60FFF7F2
:102E6000F1F9F2E74FF0500383F31188BFF36F8F4E
:102E7000BFF34F8FFEE7FFF7E5F9E6E700F0B4FA9E
:102E8000D5F800904EB914EA090F03D017B129EA1A
:102E900004042C6000F0CAFAD5E734EA0903F9D13A
:102EA000F4E700BFC0B111F07F4F70B50C4608D0F9
:102EB0004FF0500383F31188BFF36F8FBFF34F8F31
:102EC000FEE7064600F090FA356825EA040434600F
:102ED00000F0ACFA284670BD4FF0500383F3118820
:102EE000BFF36F8FBFF34F8FFEE700BFEFF3118388
:102EF0004FF0500282F31188BFF36F8FBFF34F8FF3
:102F0000006883F31188704700283ED02DE9F04116
:102F100011F07F46884608D04FF0500383F31188A4
:102F2000BFF36F8FBFF34F8FFEE70546FFF780F9C2
:102F30002B682C6905F10C0748EA0303A7422B60B4
:102F40000CD11CE013EA0C0F06D0D30148BF46EAAF
:102F50000C06FFF70BFB2B68A7420ED0204643F070
:102F600000710268646812F0806F22F07F4CE9D033
:102F70003CEA030EE9D0A742F0D123EA06032B6016
:102F8000FFF760F92868BDE8F0814FF0500383F344
:102F90001188BFF36F8FBFF34F8FFEE712F07F4FA3
:102FA00008D04FF0500383F31188BFF36F8FBFF346
:102FB0004F8FFEE72DE9F041144642B94FF0500320
:102FC00083F31188BFF36F8FBFF34F8FFEE7074680
:102FD0000E461D46FFF77CFBE0B945B14FF05003AC
:102FE00083F31188BFF36F8FBFF34F8FFEE7FFF7B7
:102FF0001FF93B68314646EA03083846FFF784FF6D
:1030000034EA08032FD0D7F80080FFF71BF94046B9
:10301000BDE8F081FFF70CF93B68314643EA06084A
:103020003846FFF771FF34EA08031CD0002DEAD0C0
:103030002A4644F0A061381DFFF730FAFFF702F985
:1030400048B94FF0E0234FF08052C3F8042DBFF38E
:103050004F8FBFF36F8FFFF747FC8301054609D5FC
:1030600025F07F48D3E73B6823EA04033B60FFF782
:10307000E9F8CCE700F0B8F93D6834EA050304BF8D
:1030800025EA04043C6000F0D1F9E9E738B50446CC
:10309000FFF7CEF8636804F10C0523B911E0FFF7E0
:1030A00065FA63686BB12069A8424FF00071F6D1F0
:1030B0004FF0500383F31188BFF36F8FBFF34F8F2F
:1030C000FEE7204600F088FBBDE83840FFF7BAB8BD
:1030D000FFF71ABF38B5B8B111F07F4F0C4608D0D2
:1030E0004FF0500383F31188BFF36F8FBFF34F8FFF
:1030F000FEE7054600F078F92B6823EA04032B600D
:10310000BDE8384000F092B94FF0500383F31188C6
:10311000BFF36F8FBFF34F8FFEE700BF38B5084D89
:10312000084B2C68002C08BF1C460A4623685968C7
:1031300000F074FE60682860003818BF012038BDB8
:10314000700B00202800002038B5D8B104460820B4
:1031500000F0C0FA054660B100F046F90E4B9A68DF
:103160009D600021C5E90041556000F05FF9012034
:1031700038BD4FF0500383F31188BFF36F8FBFF357
:103180004F8FFEE74FF0500383F31188BFF36F8F2B
:10319000BFF34F8FFEE700BF280000202DE9F04F5E
:1031A000DFF8F080D8F8043083B0074689469246AD
:1031B0006BB11B683A469B6851464846984705469E
:1031C00008B9C8F80400284603B0BDE8F08F2E4CBB
:1031D000C8F80440D4F800B0DBF8001001910846AC
:1031E00000F06EFD019902460646384600F0D6FD15
:1031F000054618B9BB5D13F0DF0F0ED06468C8F840
:103200000440002CE6D121495246484600F006FE13
:103210000025284603B0BDE8F08F9BF90C40002C38
:103220000ADAD8F80430002BC3D118495246484670
:1032300000F0F4FD0025ECE73B787BB13A4601460F
:1032400003E0002112F8013F3BB1202BF9D1431CD0
:103250000029F7D158B20121F4E789B98442E0D0BE
:10326000D8F80430002BCED009495246484600F029
:10327000D5FD00232846C8F8043003B0BDE8F08F20
:10328000013840B2EAE700BF2800002030B3000850
:10329000D8B20008700B002000487047780B00205F
:1032A000002313609C468C4521D003781BB91EE097
:1032B00010F8013FDBB1202BFAD10378202B03D18A
:1032C00010F8013F202BFBD08BB10CF1010C6145B4
:1032D000E9D103785BB18446002104E0013111603B
:1032E0001CF8013F2BB1202BF8D101B17047002011
:1032F0007047704700000000000000000000000060
:10330000DA480068006880F308884FF0000080F316
:10331000148862B661B6BFF34F8FBFF36F8F00DFC3
:1033200000BF00BFDFF84803016841F4700101608D
:10333000704700BF0E4B1B6882B000220133019220
:1033400008D04FF0500383F31188BFF36F8FBFF3A2
:103350004F8FFEE74FF0500383F31188BFF36F8F59
:10336000BFF34F8F019B002BFCD002B0704700BF12
:103370003400002010B44FF08073074C40F8043C38
:1033800021F001016FF0020340E9034140E90932F5
:103390005DF8044B4438704735330008084B196812
:1033A0000868B0E8F04F80F30988BFF36F8F4FF0E3
:1033B000000080F311887047AFF30080AFF3008006
:1033C000480A0020074B1B68B3F57A7F08D04FF0FE
:1033D000500383F31188BFF36F8FBFF34F8FFEE766
:1033E000704700BF340000204FF0500383F3118872
:1033F000BFF36F8FBFF34F8F0B4A13680133012B5D
:10340000136000D070474FF0E023D3F8043DDBB2E7
:10341000002BF7D04FF0500383F31188BFF36F8F69
:10342000BFF34F8FFEE700BF34000020084A136847
:1034300043B94FF0500383F31188BFF36F8FBFF38D
:103440004F8FFEE7013B13600BB983F31188704780
:1034500034000020EFF30980BFF36F8F144B1A681C
:103460001EF0100F08BF20ED108A20E9F04F106009
:103470002DE909004FF0500080F31188BFF34F8F02
:10348000BFF36F8FFEF74CFF4FF0000080F3118801
:1034900009BC19680868B0E8F04F1EF0100F08BFAB
:1034A000B0EC108A80F30988BFF36F8F704700BFBC
:1034B000480A002008B54FF0500383F31188BFF38A
:1034C0006F8FBFF34F8FFEF71BFF28B14FF0E02344
:1034D0004FF08052C3F8042D002383F3118808BDF8
:1034E0004FF0E02200230649136193610B68054801
:1034F000A0FB03039B090721013B53611161704746
:1035000014000020D34D62104FF0E0233C4AD3F862
:10351000001D914240D0D3F8002D3A4B9A4232D050
:1035200030B5394B39481A7883B0FF21D2B20192B5
:1035300019701B78DBB28DF803309DF803309DF8CD
:10354000032003F05003072112060370416048BFB7
:1035500006220FD59DF803305B00DBB28DF80330F7
:103560009DF803301B06114602F1FF32F2D4032905
:103570001BD041604FF0500383F31188BFF36F8F6E
:10358000BFF34F8FFEE74FF0500383F31188BFF373
:103590006F8FBFF34F8FFEE74FF0500383F3118817
:1035A000BFF36F8FBFF34F8FFEE7019B164A4FF0BB
:1035B000E024DBB21370D4F8203D43F47003C4F868
:1035C000203DD4F8203D4FF4407243F070434260F8
:1035D000C4F8203DFFF784FF0D4B00251D60FFF769
:1035E000A1FED4F8343F43F04043C4F8343FFFF722
:1035F00087FEFEF795FEFFF79DFE284603B030BD1F
:1036000071C20F4170C20F4100E400E0DC0B0020EA
:1036100034000020EFF305830F2B12D8114A5268B3
:103620004FF0E023D3F80C3D03F4E063934217D945
:103630004FF0500383F31188BFF36F8FBFF34F8FA9
:10364000FEE70949074A5B5C11789942E7D94FF0D8
:10365000500383F31188BFF36F8FBFF34F8FFEE7E3
:10366000704700BFDC0B0020F0E300E008ED00E055
:1036700088ED00E010B4164C23461A461B688342BE
:10368000FBD3516802EB010C60450BD0416800EBA5
:10369000010C63450ED0904203605DF8044B18BFE7
:1036A0001060704740680144104600EB010C634510
:1036B0005160F0D1A468A342EDD0D3E90034904228
:1036C0002144C0E900315DF8044B18BF1060704719
:1036D000E40B00202DE9F0413D4D0446FEF7A8FD26
:1036E000AB68002B56D0EE6834422DD164B304F1A0
:1036F000080160071CBF21F00701083121B3D5F88C
:103700001480884520D32C68314803E0236823B116
:1037100020461C4662688A42F8D3AB68A34213D0A5
:10372000236807680360531A102B07F1080716D99E
:10373000601842070ED04FF0500383F31188BFF397
:103740006F8FBFF34F8FFEE7FEF77CFD00273846F3
:10375000BDE8F08143606160FFF78CFF6268296912
:10376000A8EB02038B4238BF2B616B61AB6932431C
:103770000021013321606260AB61FEF763FD7B07CE
:10378000E5D04FF0500383F31188BFF36F8FBFF381
:103790004F8FFEE70F4B5E0714BFDA1D1A4603F585
:1037A000705318BF22F00702083B114623F00703AD
:1037B0009A1A00204FF0004668602960C5E904228B
:1037C000C3E90000AB604A600B60EE608CE700BFAD
:1037D000E40B0020040C0020E0B110B51A4C50F8A6
:1037E000043CE268134282B00BD050F8081C91B13F
:1037F0004FF0500383F31188BFF36F8FBFF34F8FE8
:10380000FEE74FF0500383F31188BFF36F8FBFF3D0
:103810004F8FFEE7704723EA020340F8043C019013
:10382000FEF706FD0198626950F8043C083813441D
:103830006361FFF71FFFE3690133E36102B0BDE895
:103840001040FEF7FFBC00BFE40B0020014B58699D
:10385000704700BFE40B0020014B1869704700BFA0
:10386000E40B0020704700BF2DE9F041DFF86480D1
:103870000746FEF7DDFCD8F8003033B30024D8F853
:1038800008104FF0FF362546D3E90032944238BF86
:103890001446964228BF1646994205F10105F3D118
:1038A000FEF7D0FCC7E90146FD60FFF79DFDD8E9B2
:1038B0000501D8F81C20D8F810303860C7E9051287
:1038C0003B61BDE8F041FFF7B1BD1C464FF0FF364C
:1038D0001D46E5E7E40B002008B5000800000020C5
:1038E000E4090020E40900204048002000230146AC
:1038F0001A46184601F0FCBD014B1868704700BF1E
:103900003800002008B50021044601F025FE044BD4
:103910001868C36B03B19847204607F0EBFD00BF62
:1039200020B0000838B5084B084D5B1B9C1007D031
:10393000043B1D44013C55F804399847002CF9D14B
:10394000BDE8384007F0D0BD08B5000804B5000850
:1039500070B50D4E0D4D761BB61006D0002455F8EF
:10396000043B01349847A642F9D1094E094D761B14
:1039700007F0B4FDB61006D0002455F8043B01341E
:103980009847A642F9D170BDFCB40008FCB4000809
:1039900004B50008FCB40008844641EA000313F0B3
:1039A00003036DD1403A41D351F8043B40F8043B46
:1039B00051F8043B40F8043B51F8043B40F8043B09
:1039C00051F8043B40F8043B51F8043B40F8043BF9
:1039D00051F8043B40F8043B51F8043B40F8043BE9
:1039E00051F8043B40F8043B51F8043B40F8043BD9
:1039F00051F8043B40F8043B51F8043B40F8043BC9
:103A000051F8043B40F8043B51F8043B40F8043BB8
:103A100051F8043B40F8043B51F8043B40F8043BA8
:103A200051F8043B40F8043B403ABDD2303211D348
:103A300051F8043B40F8043B51F8043B40F8043B88
:103A400051F8043B40F8043B51F8043B40F8043B78
:103A5000103AEDD20C3205D351F8043B40F8043B48
:103A6000043AF9D2043208D0D2071CBF11F8013B46
:103A700000F8013B01D30B8803806046704700BF0C
:103A8000082A13D38B078DD010F003038AD0C3F11B
:103A90000403D21ADB071CBF11F8013B00F8013BFD
:103AA00080D331F8023B20F8023B7BE7043AD9D3BC
:103AB000013A11F8013B00F8013BF9D20B78037091
:103AC0004B7843708B78837060467047830730B5BE
:103AD00048D0541E002A3FD0CAB2034601E0013C40
:103AE0003AD303F8012B9D07F9D1032C2DD9CDB280
:103AF00045EA05250F2C45EA054536D9A4F1100203
:103B000022F00F0C03F1200EE6444FEA121C03F1E1
:103B1000100242E9045542E9025510327245F8D1CB
:103B20000CF1010214F00C0F03EB021204F00F0C65
:103B300013D0ACF1040323F003030433134442F81D
:103B4000045B9342FBD10CF003042CB1CAB21C44B9
:103B500003F8012B9C42FBD130BD64461346002C78
:103B6000F4D1F9E703461446BFE71A46A446E0E756
:103B70000EB400B582B003AB816853F8042B0193F7
:103B800000F07EF902B05DF804EB03B0704700BFAF
:103B90000FB400B5074983B004AB086853F8042B91
:103BA0008168019300F06CF903B05DF804EB04B098
:103BB000704700BF380000202DE9F0410E680C4628
:103BC0000546BEB137688FB1D7F80080B8F1000F55
:103BD00008D0D8F8001009B1FFF7EEFF414628469B
:103BE00002F07AFF3946284602F076FF3146284631
:103BF00002F072FF21462846BDE8F04102F06CBF9A
:103C0000224B1B68834240D0C16C70B5054681B120
:103C100000268C593CB121462468284602F05CFFFE
:103C2000002CF8D1E96C0436802EF2D1284602F03F
:103C300053FF296C11B1284602F04EFFD5F84841D8
:103C400054B105F5A676B44206D02146246828462C
:103C500002F042FFA642F8D1696D11B1284602F088
:103C60003BFFAB6B83B1EB6B28469847D5F8E0423E
:103C700054B1216811B12846FFF79EFF214628461E
:103C8000BDE8704002F028BF70BD704738000020CA
:103C90000000000000000000000000000000000024
:103CA0000000000000000000000000000000000014
:103CB0000000000000000000000000000000000004
:103CC00090F800F06DE9024520F007016FF0000C5C
:103CD00010F0070491F820F040F049804FF0000404
:103CE0006FF00700D1E9002391F840F000F10800DF
:103CF00082FA4CF2A4FA8CF283FA4CF3A2FA8CF317
:103D00004BBBD1E9022382FA4CF200F10800A4FA7D
:103D10008CF283FA4CF3A2FA8CF3E3B9D1E90423D1
:103D200082FA4CF200F10800A4FA8CF283FA4CF308
:103D3000A2FA8CF37BB9D1E9062301F1200182FAC2
:103D40004CF200F10800A4FA8CF283FA4CF3A2FAC8
:103D50008CF3002BC6D0002A04BF04301A4612BAD6
:103D6000B2FA82F2FDE8024500EBD2007047D1E9D9
:103D7000002304F00305C4F100004FEAC50514F068
:103D8000040F91F840F00CFA05F562EA05021CBF39
:103D900063EA050362464FF00004A9E7A2B330B519
:103DA00040EA0104A40784460B462AD09CF8000090
:103DB0000C7884422FD1012A0DD0E64660B11EF85E
:103DC000010F11F8014F6FEA0E03A042134422D1F4
:103DD0001CEB0303F2D1002030BD0468194653F8F0
:103DE000045BA4F1013EAC4284462EEA040E00F1CD
:103DF00004000BD1043A84461946ECD01EF0803FF3
:103E0000E9D1032AE9D8D1E7104670479CF80000B1
:103E10000C78A042D1D0001B30BD00BF30B540EAC5
:103E20000104A30701D1032A0FD8844601F1FF3E04
:103E300007E01EF8011F03F8011B541EC1B19C4688
:103E400022466346002AF4D130BD0B46844619460B
:103E500053F8045BA5F1013424EA050414F0803F13
:103E6000E4D1043A032A4CF8045B1946EFD8DDE7A5
:103E70006244002CE8D003F8011B9342FBD130BD13
:103E80002DE9F04F2DED068BBBB01C4688469146C0
:103E900009EE100A054602F06BFF036810931846FE
:103EA0000994FFF70DFF0E901DB1AB6B002B00F0D6
:103EB0004282B8F90C20950493B20AD442F400531C
:103EC000D8F86420A8F80C3022F400529BB2C8F84D
:103ED0006420180740F1AB80D8F81020002A00F0C9
:103EE000A68003F01A030A2B00F0B0809FED947BAC
:103EF0000023CDE91E338DED0C7B2AAA0B931D9276
:103F000092460F931193079399F80030002B00F01D
:103F1000A4814C4604E014F8013F002B00F0E5803A
:103F2000252BF8D1B4EB090540F0E3802378002B72
:103F300000F0938100234FF0FF32CDE9052365782F
:103F40008DF8573004F1010918469B4609F1010923
:103F5000A5F12002582A00F2F780DFE812F07F0274
:103F6000F500F5007A02F500F500F500F500F50022
:103F7000F5002D027502F50038023D02F5007002D1
:103F80005900590059005900590059005900590069
:103F90005900F500F500F500F500F500F500F50015
:103FA000F500F500F50057028901F5008901F500DB
:103FB000F500F500F500B602F500F5009800F500F3
:103FC000F500F500F500F5008800F500F500950214
:103FD000F500F500F500F500F500F500F500F50039
:103FE000F500F5008702F001890189018901BB0212
:103FF000F001F500F500EC02F500D6029A00C502CA
:10400000C002F5001B03F5008A00F500F500F90277
:10401000A5F13002002119F8015B01EB810102EBEF
:104020004101A5F13002092AF5D9069190E719EE70
:10403000100A414601F0F2F9002841F02681B8F853
:104040000C3003F01A030A2B7FF450AFB8F90E308E
:10405000002BFFF64BAF19EE100A23464A464146A5
:104060003BB0BDEC068BBDE8F04F01F0A1B94BF0C1
:10407000100B1BF0200100F05081099B073323F047
:104080000703596853F8080B099301230EE04BF01E
:10409000100B1BF0200100F03381099B073323F044
:1040A0000703596853F8080B0993002300248DF87F
:1040B0005740059A561C00F091822BF0800603961B
:1040C00050EA010640F08882002A40F00D83002B60
:1040D00040F01E851BF00103089300F09485302307
:1040E0008DF8A7300DF1A7069DE2B4EB090500F0AD
:1040F000B4801F9B2B441F931E9B0133072BCAE9DF
:1041000000951E9305DC0AF1080A079B2B440793D0
:104110000CE719EE100A1DAA414603F0BBFF18B9BF
:104120000DF1A80AF1E7B046B8F80C305B0601F1D2
:10413000AC8007983BB0BDEC068BBDE8F08F00BFAC
:104140000000000000000000002B40F0E587002D7B
:1041500000F0838000238DF8573001238DF88050C4
:104160000493089320AE0023CDF80CB005930A9376
:10417000039B13F0020302D0049A02320492039AC2
:1041800012F0840B05D1069A0499571A002F00F3F8
:10419000A2831F9C9DF857208AB11E9A0DF15701EA
:1041A00001320134CAF80010072A4FF001011F94B0
:1041B0001E92CAF8041000F3DD830AF1080A83B1E5
:1041C0001E9B16AA01330234CAF80020072B4FF0B9
:1041D00002021F941E93CAF8042000F3DA830AF146
:1041E000080ABBF1800F00F09B82059B089AA3EBA5
:1041F000020BBBF1000F00F3D682039BDF0500F139
:104200001B82089BCAF804301C441E9BCAF800603D
:104210000133072B1F941E9300F350830AF1080A01
:10422000039B5A0705D5069B049A9D1A002D00F39F
:10423000BD83DDE9062304998A42ACBF9B185B1855
:104240000793002C40F0EA8200231E9399F8003077
:104250000DF1A80A002B7FF45CAE1F9B002B3FF4EE
:1042600063AF19EE100A1DAA414603F013FF5BE786
:10427000002B40F0F687099B073323F00703B3ECCC
:10428000027B8DED0C7BDDE90C67099327F0004381
:1042900008EE903A08EE106AB94B51EC180B4FF04B
:1042A000FF3206F09FFC002840F0B484B44B51EC80
:1042B000180B4FF0FF3206F077FC002840F0AA847C
:1042C000002200233046394606F064FC002840F006
:1042D00002879DF85740AB4E2BF080030393AA4B07
:1042E0000022472DC8BF1E460323CDE904320893A0
:1042F0000A92002C3FF43CAF049B0133049337E750
:104300001BF0100352D11BF040014FD0099A52F814
:10431000040B0992194680B2C8E61BF010033FD186
:104320001BF040013CD0099A52F8040B099219463F
:1043300080B20123BAE6284602F05EFBB9E5002B05
:1043400040F09F871BF0200F099B68D0073323F0B4
:1043500007031A465B6852F8080B09921946002BAE
:10436000C0F23D84059B013300F005852BF08003EE
:10437000039350EA01039DF8574000F0C583DDF830
:104380000CB00A2871F1000380F0FC843030012366
:104390008DF8A700CDF80CB008930DF1A70642E107
:1043A000099B53F8040B099301237FE6099B53F8FB
:1043B000040B09930B4679E6099A52F8041B0691FF
:1043C000002980F21B84069909924942069199F8C6
:1043D00000504BF0040BB9E5494611F8015B2A2D5A
:1043E00000F0C587A5F13002092A894698BF00214F
:1043F00000F2338719F8015B01EB810102EB410107
:10440000A5F13002092AF5D90591A1E5002B40F06C
:1044100030874BF0100B1BF0200F099B96D153F8FF
:10442000040B09931BF0100F40F0D4831BF0400FD6
:1044300000F0D08340F3C0310B4600B28FE799F80B
:1044400000504BF0800B81E599F8005001232B20A0
:104450007CE599F800504BF0010B77E599F8005096
:1044600000287FF473AD012320206FE5099B002213
:104470008DF8572053F8042B099301238DF88020E1
:104480000493089320AE6EE6002B40F0E2863F4B8B
:104490000F931BF0200163D0099B073323F0070320
:1044A000596853F8080B09931BF0010F0BD050EA21
:1044B000010308D030238DF858308DF859504BF057
:1044C000020B0223F2E50223F0E599F800504BF0CD
:1044D000080B3BE599F800504BF0400B36E599F896
:1044E00000504BF0200B31E5099B53F8040B099366
:1044F000302378258DF85830254B0F934BF0020B65
:104500008DF8595000210223D0E5002B40F0AD86F4
:104510001BF0200F40F025841BF0100F40F09D840D
:104520001BF0400F00F09984099B079953F8042B66
:1045300009931180E8E499F800506C2D03BF99F8B5
:1045400001504BF0200B09F101094BF0100BFDE479
:10455000002B40F092860E4B0F931BF020019BD155
:104560001BF0100340F031831BF0400100F02D835D
:10457000099A52F8040B0992194680B294E700BFD9
:10458000FFFFEF7FB8B30008BCB30008DCB300083E
:10459000C8B30008099C059B54F8046B00278DF8EC
:1045A0005770002E00F027845A1C00F023851A460D
:1045B0003946304602F034FF002800F03286831B73
:1045C000089323EAE373099405979DF85740CDF8C3
:1045D0000CB004930A978CE6DDF80CB0012B3FF485
:1045E000D0AE022B00F088802AAE00F00703C0088E
:1045F00040EA4170C908303350EA0107324606F8F4
:10460000013DF2D11BF0010F00F08480302B00F04F
:1046100081803023023A06F8013C2AAB9B1ACDF880
:104620000CB008931646059B089A9342B8BF1346F0
:10463000049300230A935CE6652D40F3F980DDE9DD
:104640000C010022002306F09BFA002800F0E9810B
:104650001E9BC54ACAF80020013301340122072BF2
:104660001F941E93CAF8042000F36B840AF1080A11
:10467000179B0B9A934280F2BC820E9B109A1C44AB
:10468000CAE900231E9B1F940133072B1E9300F3DE
:10469000A5830AF1080A0B9B5D1E002D7FF7C0ADB4
:1046A000102D1E9BB14F40F3408419EE10BA102616
:1046B00005E00AF1080A103D102D40F3368401335D
:1046C0001034072BCAE90076CDE91E34F1DD1DAAAE
:1046D0004146584603F0DEFC00287FF425ADDDE9B5
:1046E0001E340DF1A80AE6E7012B00F04885022BE5
:1046F000DDF80CB07FF478AF0F9A2AAE00F00F030C
:104700000009D35C06F8013D40EA0170090950EA4E
:104710000103F3D12AAB9B1BCDF80CB0089382E7C1
:10472000069B049AA3EB020BBBF1000F7FF75DAD74
:10473000BBF1100F1E9A8D4F27DD2146102319EE75
:10474000104A06E0ABF1100BBBF1100F0AF1080A9A
:104750001ADD01321031072ACAE90073CDE91E21A2
:10476000F0DD1DAA414620460DF1A80A03F092FC97
:1047700000287FF4D9ACABF1100BBBF1100FDDE9D1
:104780001E214FF01003E4DC0C4601325C44072A82
:10479000CDE91E24CAF80070CAF804B000F3DF8324
:1047A0000AF1080A21E5BBF1100F1E9A6F4F27DDB1
:1047B0002146102319EE104A06E0ABF1100BBBF1B5
:1047C000100F0AF1080A1ADD01321031072ACAE96E
:1047D0000073CDE91E21F0DD1DAA4146204603F0FD
:1047E00059FC00287FF4A0ACABF1100BBBF1100F0B
:1047F000DDE91E210DF1A80A4FF01003E4DC0C46A0
:1048000001325C44072ACDE91E24CAF80070CAF8B8
:1048100004B000F3CC810AF1080AEEE419EE100AA4
:104820001DAA414603F036FC00283FF40DAD7BE4A1
:104830000B9B012B40F371811E9DCAF8006001356E
:1048400001340123072D1F941E95CAF8043000F38C
:104850000C830AF1080A0E9B109A01351C44072D9F
:10486000CAE90023CDE91E5400F30D830AF1080ABA
:10487000DDE90C010022002306F082F9002840F057
:104880006B810B9B0135013B01361C44072DCAF897
:1048900000601E95CAF804301F9400F34F810AF19E
:1048A000080A119BCAF8043001351C44072D19ABC6
:1048B000CDE91E54CAF800307FF7B0AC19EE100AEB
:1048C0001DAA414603F0E6FB00287FF42DAC1F9C97
:1048D0000DF1A80AA4E4102FDDE91E2134DD1293A6
:1048E000CDF84C901024B1460B464646B8462F46AC
:1048F00019EE105A06E0A8F11008B8F1100F0AF1ED
:10490000080A19DD01321A491033072ACAE90014CE
:10491000CDE91E23EFDD1DAA314628460DF1A80A78
:1049200003F0B8FB00287FF4FEABA8F11008B8F143
:10493000100FDDE91E23E5DC3D4619464746129B74
:10494000B0464E46DDF84C90CAF8047001327C182F
:10495000072A0749CAF80010CDE91E2400F3D582C2
:104960000AF1080A16E400BFF8B3000834B00008E2
:1049700024B0000819EE100A1DAA4146129303F054
:1049800089FB00287FF4D0AB1F9C129B0DF1A80A75
:1049900015E419EE100A1DAA414603F07BFB00281E
:1049A0007FF4C2AB1F9C0DF1A80A1AE4102D1E9BC8
:1049B00020DD19EE107A102604E0103D102D0AF1CA
:1049C000080A17DD0133914A1034072BCAE9002683
:1049D000CDE91E34F1DD1DAA414638460DF1A80A85
:1049E00003F058FB00287FF49FAB103D102DDDE94C
:1049F0001E34E7DC0133854ACAF804502C44072BE7
:104A0000CDE91E34CAF800207FF713AC19EE100A66
:104A10001DAA414603F03EFB00287FF485AB1F9C96
:104A200007E41799002940F33C82DDE90A379F42E9
:104A3000A8BF1F46002F0BDD1E9B01333C44072BF4
:104A4000CAE900671F941E9300F3CB830AF1080A9A
:104A50000A9D002FA8BFED1B002D00F3D581179DE7
:104A60000B9B9D4280F2AE810E9B109A1C44CAE9BA
:104A700000231E9B1F940133072B1E9300F3A38377
:104A80000AF1080A0B9B0A9A5D1B9F1AAF42A8BF46
:104A90002F46002F0EDD1E9BCAF80470013316440A
:104AA0003C44072BCAF800601F941E9300F3A683B2
:104AB0000AF1080A002FA8BFED1B002D7FF7B0AB4D
:104AC000102D1E9B524F40F3308219EE10BA102663
:104AD00005E00AF1080A103D102D40F3268201334B
:104AE0001034072BCAE90076CDE91E34F1DD1DAA8A
:104AF0004146584603F0CEFA00287FF415ABDDE9B5
:104B00001E340DF1A80AE6E7059B002B40F0378321
:104B10000023059308932AAE85E5039BD9073FF54B
:104B20008BAE1E9DCAF80060013501340123072DAC
:104B30001F941E95CAF804307FF7B1AE19EE100A23
:104B40001DAA414603F0A6FA00287FF4EDAADDE98C
:104B50001E540DF1A80AA4E60B9B5E1E002E7FF7E3
:104B6000A0AE102E2A4F40F35782CDF814904FF08C
:104B7000100B19EE109A05E00AF1080A103E102EEB
:104B800040F3488201351034072DCAE9007BCDE996
:104B90001E54F1DD1DAA4146484603F07BFA002869
:104BA0007FF4C2AADDE91E540DF1A80AE6E719EE6A
:104BB000100A1DAA414603F06DFA00287FF4B4AA3A
:104BC0001F9C0DF1A80AFFF718BB099B53F8040BB3
:104BD000099369E4C1170B46002BBFF6C3AB4042F3
:104BE0004FF02D0461EB41018DF857400123FFF791
:104BF00060BA039BDD077FF513AB3EE599F80050E3
:104C00000992FFF7A3B92AAE0DE500BF24B0000852
:104C100034B00008DDE90C0102460B4605F0E2FF66
:104C2000002840F06583059B013325F0200700F044
:104C3000F582472F00F08182DDE90C014BF4807290
:104C400000290392C0F24C829DED0C7B002312934D
:104C5000B0EE47AAF0EE67AA662D00F0E981462D76
:104C600000F0E681B0EE4A0AF0EE6A0A452F0ABF6C
:104C7000059B059C5C1C1BAB019318AB009319EEC4
:104C8000100A17AB2246022100F056FD672D06469A
:104C900040F03D821BF0010F40F03C821B9B472FF0
:104CA000A3EB06030B9340F06E83179B0A93D91C6A
:104CB00003DB059A934240F37882023D0A9A8DF80D
:104CC0006450531E002B1793B6BFC2F101032B2271
:104CD0002D22092B8DF8652040F3F5820DF1730428
:104CE000C04F2246104687FB0321DA17C2EBA10210
:104CF00002EB8201A3EB4101303100F8011C19469F
:104D00006329134600F1FF32ECDC3033D9B2831E45
:104D10009C4202F8011C40F2278313460DF1660203
:104D200001E013F8011B02F8011B9C42F9D10DF1BF
:104D300075030DF166021B1A134419AA9B1A1193ED
:104D40000B9A119B012A1344089340F3C882089BD5
:104D50000E9A1344089323EAE373049300230A93FF
:104D60009EE1099B079853F8041B0993C217C1E9F8
:104D70000002FFF7C9B80A2871F100039DF85740F7
:104D8000FFF404ABCDF80C902AAEA1460A22002312
:104D900004460F4605F064FF303206F8012D00236B
:104DA000204639460A2205F05BFF0A2C77F1000302
:104DB000ECD22AAB9B1B4C460893DDF80C90CDF847
:104DC0000CB030E4039BD8073FF54EAEDDE90A2373
:104DD0009F1A5D1BAF42A8BF2F466BE619EE100A63
:104DE0001DAA414603F056F900287FF49DA91F9C97
:104DF0000DF1A80A4FE4062B28BF0623CDE908349D
:104E0000794E0493FFF7AFB9102D1E9B774F40F3F7
:104E100055813A460596474619EE106A4FF0100B39
:104E2000904605E00AF1080A103D102D40F342813A
:104E300001331034072BCAE9008BCDE91E34F1DDB4
:104E40001DAA3946304603F025F9002840F0448277
:104E5000DDE91E340DF1A80AE6E7099B079953F82E
:104E6000042B11600993FFF74FB819EE100A1DAA21
:104E7000414603F00FF900287FF456A9DDE91E54DE
:104E80000DF1A80AE7E419EE100A1DAA414603F045
:104E900001F900287FF448A9DDE91E540DF1A80AA4
:104EA000E6E41E9B524ACAF8002001330134012275
:104EB000072B1F941E93CAF8042000F31A810AF1ED
:104EC000080A002959D1039B0B9A03F001031343ED
:104ED0003FF4A6A90E9B10991A19CAE900131E9B4C
:104EE0001F920133072B1E9300F32D810AF1080A4C
:104EF0000B99CAF8006001338C18072BCDE91E34DA
:104F0000CAF804107FF78AA9D8E419EE100A1DAA7E
:104F10004146129303F0BEF800287FF405A91F9CB8
:104F2000129B0DF1A80AFFF735B901332C44072B6A
:104F3000CAF80070CAF80450CDE91E347FF76EA994
:104F4000BCE419EE100A1DAA414603F0A3F800289C
:104F50007FF4EAA81F9C0DF1A80AFFF789BB19EEA0
:104F6000100A1DAA414603F095F800287FF4DCA83A
:104F70001F9C0DF1A80AFFF738B90E9B10981A195B
:104F8000CAE900031E9B1F920133072B1E9300F3F7
:104F9000DA800AF1080A0029AADA4D421031134FCB
:104FA00080F2788119EE10BA102405E00AF1080A9F
:104FB000103D102D40F36E8101331032072BCAE9EA
:104FC0000074CDE91E32F1DD1DAA4146584603F0BA
:104FD00061F800287FF4A8A8DDE91E320DF1A80AC7
:104FE000E6E700BF67666666F0B3000834B0000805
:104FF000F8B30008304609940597CDF80CB0FEF7D9
:105000005FFE20EAE0739DF85740089004930A97EA
:10501000FFF76FB9DDF81490CAF800700135344419
:10502000072DCDE91E54CAF804607FF738AC85E53A
:10503000059CB0EE4A0AF0EE6A0A1BAB019318AB6E
:105040000093224617AB19EE100A032100F074FBFF
:10505000064604193378302B62D0179B1C4451EC60
:105060001A0B0022002305F08BFD002800F08B8036
:1050700023469B1B472F0B933FF417AE662D40F042
:105080008281179B059A0A93002B0BF0010B40F3CA
:105090005C815BEA020140F045810A9B049308931E
:1050A000129B002B7BD02D238DF8573000230593C6
:1050B000FFF722B94246059EB846174601332C44F5
:1050C000072BCDE91E34CAF80070CAF8045049DC39
:1050D0000AF1080AC3E42D248DF85740FFF7FBB806
:1050E00001F100430AEE903A2D230AEE100A1293C2
:1050F000B2E519EE100A1DAA414602F0CBFF0028C6
:105100007FF412A817991F9C0DF1A80AD9E6472D24
:105110003FF4C0AD3444A2E78DF85700FFF717B84D
:1051200051EC1A0B0022002305F02AFD002894D12F
:10513000059BC3F10103179390E7059B002B08BF64
:105140000123059378E519EE100A1DAA414602F0E5
:10515000A1FF00287EF4E8AFDDE91E3217990DF1BA
:10516000A80A18E719EE100A1DAA414602F092FF9C
:1051700000287EF4D9AF1F9C0DF1A80A6FE4DDF87A
:105180000CB0FFF703B91B9BA342BFF472AF3021F1
:105190005A1C1B9219701B9B9C42F9D869E7129B01
:1051A0009DF857400593FFF7A4B8DDE90A32934212
:1051B00043DB1BF0010F40F0AC8023EAE372049262
:1051C000089367256CE719EE100A1DAA414602F004
:1051D00061FF00287EF4A8AF179D1F9C0DF1A80A5F
:1051E00050E419EE100A1DAA414602F053FF0028B0
:1051F0007EF49AAF1F9C0DF1A80A29E419EE100A5B
:105200001DAA414602F046FF00287EF48DAF179D8F
:105210000B9B1F9C5D1B0DF1A80A4BE40623059315
:105220000AE5059B0994CDF80CB09DF8574004930E
:10523000089305900A90FFF75CB80E9A0B9B1344F5
:105240000A9A0893002A75DD23EAE373049367251D
:1052500026E78DF85700FFF71AB900220592FEF7EE
:1052600077BE8DF85700FFF706B88DF85700FFF7A7
:105270004FB98DF85700FFF7CCB88DF85700FFF7FE
:105280006AB98DF85700FFF75DB84FF0FF33079309
:10529000FEF74FBF01332A44072BCDE91E32CAF86F
:1052A0000070CAF804507FF721AE19EE100A1DAA4B
:1052B000414602F0EFFE00287EF436AFDDE91E32F3
:1052C0000DF1A80A14E630338DF8673030238DF8DD
:1052D00066300423119333E5B846FEF725BF1BF073
:1052E00001020A927FF433AD23EAE3730493D7E615
:1052F0000D9B264E002BB8BF2D242BF0800303936B
:10530000A8BF9DF85740224BB8BF8DF85740FEF715
:10531000E7BF0A9B0E9A1344089323EAE3730493AE
:105320006725BDE60E990B441A4422EAE2730892FF
:105330000493B5E60A9B089AC3F101031A4422EAD2
:10534000E273089204936725AAE65BEA020303D19D
:10535000012304930893A3E60E9B01331A4422EA27
:10536000E273089204939BE602231193E8E4099AFE
:1053700099F80150894652F8041B099241EAE171FB
:105380000591FEF7E3BD179B0A9397E4C0B30008AD
:10539000C4B3000810B4054C8446134620685DF879
:1053A000044B0A466146FEF76BBD00BF3800002083
:1053B00070B50C468989ADF58D6D21F00201ADF80F
:1053C0000C10616E1991E189ADF80E10E169079139
:1053D000616A09911AA9009104914FF480610291C8
:1053E00005910021069169460646FEF749FD051E16
:1053F00007DB6946304601F0D5F9002818BF4FF0A9
:10540000FF35BDF80C305B0603D5A38943F040039C
:10541000A38128460DF58D6D70BD00BF38B5334BA7
:105420001B6805460C460BB19A6B12B3B4F90C30ED
:1054300018079AB225D5216900292DD012F0010054
:1054400007D00020A06060694042A06139B100200F
:1054500038BD950758BF6069A0600029F7D11206D2
:1054600058BF0846F4D543F04003A3814FF0FF3006
:1054700038BD184601F0C0FAB4F90C3018079AB2DA
:10548000D9D4D1062AD5520714D4216943F0080390
:10549000A3819AB20029D1D102F42070B0F5007F27
:1054A000CCD02146284601F06BFCB4F90C302169C0
:1054B0009AB2C3E7216B51B104F14002914204D08A
:1054C000284601F009FBB4F90C300022226321695F
:1054D0000022C4E9001223F02403D7E7092243F095
:1054E00040032A604FF0FF30A38138BD3800002010
:1054F00070B4184C2568D5F848411CB365681F2D59
:1055000025DC38B9AB1C0135656044F82310002058
:1055100070BC704704EB850C0228CCF88820D4F8C6
:1055200088614FF0010202FA05F246EA0206C4F869
:105530008861CCF80831E5D1D4F88C311343C4F834
:105540008C31DFE705F5A674C5F84841D6E74FF082
:10555000FF30DDE720B000082DE9F84F2B4B1F6826
:10556000D7F848612DED028BC6B108EE100A8B46C4
:105570004FF001084FF000097468651E0ED4013425
:1055800006EB8404BBF1000F0CD0D4F800315B456E
:1055900008D0013D6B1CA4F10404F3D1BDEC028BD7
:1055A000BDE8F88F73682268013BAB420CBF7560A1
:1055B000C4F80090002AECD0D6F88801D6F804A0F0
:1055C00008FA05F101420BD190477268524513D198
:1055D000D7F84831B342DCD01E46002ECCD1DDE7EF
:1055E000D6F88C0101420CD1D4F8801018EE100AC4
:1055F000904772685245EBD0D7F84861002EBBD176
:10560000CCE7D4F880009047DFE700BF20B0000867
:105610002DE9F04F03690C69A34283B0C0F2878083
:10562000013C01F11405A30000F11408009355F8A2
:10563000243058F82420013381469A4208EB840034
:1056400005EB84070190B2FBF3F63BD30023AE4693
:1056500040469B465EF804AB02681FFA8AFC06FBD4
:105660000C334FEA134C4FEA1A4A06FB0ACA1FFAD8
:1056700083FCABEB0C0C1FFA8AF31CFA82FCC3EB25
:10568000124202EB2C421FFA8CFC4CEA0243774593
:1056900040F8043B4FEA224B4FEA1A43DAD2009B10
:1056A00058F8033073B9019B043B984504D307E0D5
:1056B000984504F1FF3403D253F80429002AF7D0A7
:1056C000C9F81040484602F0E1F900282BDB01360A
:1056D0004046002355F8041BD0F800C08AB29A1A3D
:1056E0000B0C12FA8CF2C3EB1C4303EB224392B275
:1056F00042EA0342AF4240F8042B4FEA2343E9D287
:1057000058F8242008EB84036AB9043B984504D375
:1057100007E0984504F1FF3403D253F80429002A26
:10572000F7D0C9F81040304603B0BDE8F08F002034
:1057300003B0BDE8F08F00BF2DE9F04F2DED068BD3
:1057400095B08DED020B0191016C249D099259ECED
:10575000108B0446069341B1426C4A60012393408A
:105760008B6001F0D7FE00232364B9F1000AB4BFB7
:10577000012300232B607C4BBCBF2AF0004ACDF8EC
:105780000CA033EA0A0300F0B2809DED027B0022F8
:1057900051EC170BB0EE479AF0EE679A002305F034
:1057A000EFF9074680B1069A01231360259B002B71
:1057B00000F0DB826D481860431E0093009815B01E
:1057C000BDEC068BBDE8F08F12AA13A92046B0EEFF
:1057D000490AF0EE690A02F0B1FAB0EE498AF0EE39
:1057E000698A5FEA1A56054640F09980DDE912762B
:1057F0003E4406F23240202840F3AB83C0F1400023
:105800000AFA00FA06F2124028FA00F04AEA00000A
:1058100004F0D4FE0123013E0D93A1F1F871544B25
:10582000002204F08DFD4AA3D3E9002304F040FFD9
:1058300049A3D3E9002304F085FD8046304689461C
:1058400004F0CCFE46A3D3E9002304F031FF024666
:105850000B464046494604F075FD8046894605F0F2
:10586000D7F90022834600234046494605F092F9C5
:10587000002840F06D82BBF1160F00F25C823D4BB8
:1058800003EBCB03D3E9002351EC190B05F082F9AC
:10589000002875D00023BE1B0C93731E0BF1FF3B39
:1058A000049300F14F8200230893BBF1000F6EDADE
:1058B000089BCDF814B0A3EB0B030893CBF10003C6
:1058C0000B93019B092B4FF0000B69D8052B40F37C
:1058D0003E83043B01930026019B023B032B00F215
:1058E0009986DFE813F04E044B0443042604069A1D
:1058F00042F20F73CAF3130A13605AEA08031DD168
:10590000259B002B00F07D861B4B00930833259AC6
:105910000098136015B0BDEC068BBDE8F08F18EE53
:10592000903AC3F3130351EC190B43F07F510D97D9
:10593000A6F2FF36129F41F4401170E7259B002B21
:1059400040F0DB830D4B009338E700BFAFF30080DE
:1059500061436F63A787D23FB3C8608B288AC63F75
:10596000FB799F501344D33F0000F07FF9B3000848
:105970000000F83F58B0000800B40008FCB300086D
:10598000BE1B731E049300F19A840C900890049B34
:105990005B44CDE9043B00230B93019B092B95D974
:1059A000002301264FF0FF3201930A9607920993D4
:1059B000079B0F9300216164204601F085FD009054
:1059C000002800F02F86009B2364079B0E2B00F21B
:1059D000F980002E00F0F6800599002940F37184CB
:1059E000BD4B01F00F0203EBC2034FEA2118C905BA
:1059F000D3E9006740F10384B84B51EC190BD3E9AC
:105A0000082304F07FFF41EC180B08F00F084FF05B
:105A1000030AB8F1000F13D0DFF8C09218F0010F9D
:105A200009D030463946D9E9002304F041FE0AF195
:105A3000010A06460F465FEA680809F10809EDD138
:105A400051EC180B32463B4604F05CFF41EC1A0B5C
:105A50000C9B5BB157EC1A6BA14B1AEE100A00229B
:105A6000394605F097F8002840F05285504604F07A
:105A7000B5FD53EC1A2B04F01BFE9A4B002204F0E8
:105A800061FC079B8046A1F15079002B00F0F38365
:105A9000059B1093079B0E930A9B002B00F0C0847C
:105AA0000E9A8D4B9049DDF800A003EBC20353E939
:105AB0000223002004F026FF42464B4604F040FC3F
:105AC00059EC1A8B41EC180B49461AEE100A05F0F6
:105AD0009FF8074604F082FD02460B461AEE100AB4
:105AE000494604F02DFC30370AF8017B53EC182BA3
:105AF00006460F4605F04EF8002840F055854FF059
:105B000000080AEE105ACDF844B055465BEC18ABCD
